:020000040800F2
:1000000000000220C11E0008390700083B07000855
:100010003D0700083F0700084107000800000000F6
:10002000000000000000000000000000430700087E
:1000300045070008000000004707000849070008BE
:10004000111F0008111F0008111F0008111F0008D0
:10005000111F0008111F0008111F0008111F0008C0
:10006000111F0008111F0008111F0008111F0008B0
:10007000111F0008111F0008111F0008111F0008A0
:10008000111F0008111F0008111F0008111F000890
:10009000111F0008111F0008111F0008111F000880
:1000A000111F0008111F0008111F0008111F000870
:1000B000111F0008111F0008111F0008111F000860
:1000C000111F0008111F0008111F0008111F000850
:1000D000111F0008111F0008111F0008111F000840
:1000E000111F0008111F000800000000111F000868
:1000F000111F0008111F0008111F0008111F000820
:10010000111F0008111F0008111F0008111F00080F
:10011000111F0008111F0008111F0008111F0008FF
:10012000111F0008111F0008111F0008111F0008EF
:10013000111F0008111F0008111F0008111F0008DF
:1001400000000000000000000000000000000000AF
:10015000111F0008111F0008111F0008111F0008BF
:10016000111F0008111F0008111F0008111F0008AF
:10017000111F0008111F0008111F0008111F00089F
:10018000111F0008111F0008111F0008111F00088F
:10019000111F0008111F0008111F0008111F00087F
:1001A000111F0008111F0008111F0008111F00086F
:1001B000111F0008111F0008111F0008111F00085F
:1001C000111F0008111F0008111F0008111F00084F
:1001D000111F0008111F0008111F0008111F00083F
:1001E000111F0008111F0008111F0008111F00082F
:1001F000111F0008111F0008111F0008111F00081F
:10020000111F0008111F0008111F0008111F00080E
:10021000111F0008111F0008111F0008111F0008FE
:10022000111F0008111F0008111F00080000000026
:10023000111F0008111F000800000000111F000816
:10024000111F0008111F0008111F0008111F0008CE
:10025000111F0008111F0008111F0008111F0008BE
:10026000111F0008111F0008111F0008111F0008AE
:10027000111F0008111F0008111F000800000000D6
:10028000111F0008111F0008111F000800000000C6
:0802900000000000111F00082E
:100298000348044B834202D0034B03B1184770470D
:1002A800100000201000002000000000054806494A
:1002B8000B1AD90F01EBA301491002D0034B03B16C
:1002C80018477047100000201000002000000000B0
:1002D80010B5064C237843B9FFF7DAFF044B13B186
:1002E8000448AFF300800123237010BD10000020E4
:1002F80000000000141F000808B5044B1BB1044996
:100308000448AFF30080BDE80840CFE700000000D4
:1003180014000020141F000870B50D4E0D4D761BFB
:10032800B61006D0002455F8043B01349847A6427D
:10033800F9D1094E094D761B01F0E8FDB61006D03B
:10034800002455F8043B01349847A642F9D170BD02
:100358001C2000081C200008202000081C20000881
:10036800830730B548D0541E002A3FD0CAB203468E
:1003780001E0013C3AD303F8012B9D07F9D1032C86
:100388002DD9CDB245EA05250F2C45EA054536D9C4
:10039800A4F1100222F00F0C03F1200EE6444FEAFC
:1003A800121C03F1100242E9045542E902551032C9
:1003B8007245F8D10CF1010214F00C0F03EB021294
:1003C80004F00F0C13D0ACF1040323F0030304333F
:1003D800134442F8045B9342FBD10CF003042CB1A4
:1003E800CAB21C4403F8012B9C42FBD130BD6446C1
:1003F8001346002CF4D1F9E703461446BFE71A4622
:10040800A446E0E710B584B0002400940194029457
:10041800039400F021FA01238DF800308DF8014093
:1004280001941F228DF8082087228DF809208DF865
:100438000A408DF80B408DF80C308DF80D308DF892
:100448000E408DF80F40684600F024FA042000F0B2
:1004580011FA04B010BD72B6FEE7000000B59DB0F9
:100468004C22002109A8FFF77BFF2022002101A8C8
:10047800FFF776FF022001F015FC002300931E4BC6
:10048800DA6A22F00102DA62DB6A03F00103009300
:100498001A4A936923F4404343F480439361936970
:1004A80003F440430093009B144B9B6913F4005FD3
:1004B800FAD00223099301230C9340230D930023C0
:1004C800129309A800F076FA88B93F230193002314
:1004D80002930393049305930693079308930121CA
:1004E80001A800F0A1FF20B91DB05DF804FBFFF7DB
:1004F800B2FFFFF7B0FF00BF0004005800480258E1
:1005080008B5FFF77FFF01F02BFCFFF7A7FF00F00E
:1005180003F8FEE770470000F0B591B000240B9493
:100528000C940D940E940F94754BD3F8E02042F47C
:100538008072C3F8E020D3F8E02002F480720092C1
:10054800009AD3F8E02042F00202C3F8E020D3F882
:10055800E02002F002020192019AD3F8E02042F46E
:100568008062C3F8E020D3F8E02002F480620292AF
:10057800029AD3F8E02042F04002C3F8E020D3F812
:10058800E02002F040020392039AD3F8E02042F000
:100598000802C3F8E020D3F8E02002F00802049231
:1005A800049AD3F8E02042F00402C3F8E020D3F81C
:1005B800E02002F004020592059AD3F8E02042F008
:1005C8000102C3F8E020D3F8E02002F0010206920D
:1005D800069AD3F8E02042F01002C3F8E020D3F8DE
:1005E800E02002F010020792079AD3F8E02042F4C4
:1005F8000072C3F8E020D3F8E02002F400720892F9
:10060800089AD3F8E02042F08002C3F8E020D3F83B
:10061800E02002F080020992099AD3F8E02042F023
:100628002002C3F8E020D3F8E03003F020030A9357
:100638000A9B344F22464FF40041384601F016FB1E
:100648004FF6FF760B9603250C950D940BA92E48B3
:1006580001F044F90B960C950D940BA92B4801F069
:100668003DF9FF230B930C950D940BA9284801F035
:1006780035F947F6FF730B930C950D940BA9384683
:1006880001F02CF90B960C950D940BA9214801F05B
:1006980025F90B960C950D940BA91F4801F01EF92E
:1006A8000B960C950D940BA91C4801F017F90B96A5
:1006B8000C950D940BA91A4801F010F90B960C959E
:1006C8000D940BA9174801F009F90B960C950D9498
:1006D8000BA9154801F002F94FF400430B930123CD
:1006E8000C930D940E940BA9384601F0F7F80B966D
:1006F8000C950D940BA90D4801F0F0F811B0F0BD60
:1007080000440258001802580020025800040258F9
:1007180000280258000C025800080258000002582D
:100728000010025800240258001C025800140258F5
:10073800FEE7FEE7FEE7FEE7FEE770477047704713
:1007480008B501F03BFB08BD82B0074BD3F8F42095
:1007580042F00202C3F8F420D3F8F43003F00203A5
:100768000193019B02B070470044025810B504463B
:10077800C31E042B0DD8094AD36823F4E0631B0475
:100788001B0C240204F4E0641C43054B2343D36090
:1007980010BD91210348FFF7BDFEECE700ED00E036
:1007A8000000FA052C1F000870B505460C461646D1
:1007B8000F2A21D80F2C24D8194BDB68C3F3022346
:1007C800C3F10701042928BF04211A1D062A1DD9CF
:1007D800033B4FF0FF3202FA01F124EA01049C4086
:1007E80002FA03F326EA03063443002D10DB240142
:1007F800E4B20C4B5C5570BDA9210B48FFF78AFE8B
:10080800D8E7AA210848FFF785FED5E70023E0E7E7
:1008180005F00F052401E4B2044B5C55EBE700BF7B
:1008280000ED00E000E400E02C1F000814ED00E0FB
:100838000138B0F1807F0BD24FF0E0235861054AB0
:10084800F02182F823100020986107221A6170476E
:100858000120704700ED00E0BFF35F8F044B5A6A38
:1008680022F480325A620022C3F89420704700BFF5
:1008780000ED00E040F00100054BC3F894005A6A0F
:1008880042F480325A62BFF34F8FBFF36F8F7047C5
:1008980000ED00E010B5044643780F2B49D82378C3
:1008A800012B4CD8237B012B4FD8E37A052B18BF9B
:1008B800032B01D9062B4ED1A37A022B51D8637B87
:1008C800012B54D8A37B012B57D8E37B012B5AD893
:1008D800637AFF2B5DD0237A043BDBB21B2B5ED8F7
:1008E8006378324AC2F89830D2F8A03023F0010376
:1008F800C2F8A0306368C2F89C30217BE37A1B06FB
:1009080043EA0173A17A43EAC143617B43EA814325
:10091800A17B43EA4143E17B43EA0143617A43EA2D
:100928000123217A43EA410321780B43C2F8A0301E
:1009380010BD40F24D111E48FFF7ECFDAFE74FF434
:10094800A7711B48FFF7E6FDACE740F24F111848C6
:10095800FFF7E0FDA9E74FF4A8711548FFF7DAFDA6
:10096800AAE740F251111248FFF7D4FDA7E74FF468
:10097800A9710F48FFF7CEFDA4E740F253110C48C8
:10098800FFF7C8FDA1E74FF4AA710948FFF7C2FDB8
:100998009EE740F255110648FFF7BCFD9BE74FF470
:1009A800AB710348FFF7B6FD9AE700BF00ED00E022
:1009B8002C1F0008002800F01C8438B50446036882
:1009C80013B113F03F0F25D0236813F0010F3AD06D
:1009D8006368002B18BFB3F5803F02D0B3F5A02F92
:1009E8001ED1A04A136903F03803926A102B21D054
:1009F800182B1BD06368B3F5803F57D0002B6BD101
:100A0800984B1A6822F480321A601A6822F48022FD
:100A18001A6050E040F2A1119348FFF77BFDD3E73D
:100A28004FF4D3719048FFF775FDDAE702F003023F
:100A3800022ADFD18B4B1B6813F4003F03D0636895
:100A4800002B00F0D883236813F0020F00F0B98060
:100A5800E368092B18BF012B03D9112B01D0192BDF
:100A680060D123697F2B63D87E4A1369926A13F099
:100A7800380366D0182B61D0E368002B00F0F680AD
:100A880078490A6822F0190213430B6001F0A2F9B1
:100A98000546744B1B6813F0040F40F0C18001F049
:100AA80099F9401B0228F4D9032068E06D4A1368BD
:100AB80043F48033136063682BB301F08BF9054668
:100AC800684B1B6813F4003FBDD101F083F9401B4C
:100AD8006428F5D9032052E0B3F5A02F09D0614B63
:100AE8001A6822F480321A601A6822F480221A6086
:100AF800E1E75C4B1A6842F480221A601A6842F4F3
:100B080080321A60D7E701F065F90546554B1B6836
:100B180013F4003F97D001F05DF9401B6428F5D924
:100B280003202CE04FF4ED714F48FFF7F3FC98E7F2
:100B380040F2DB114C48FFF7EDFC95E712F0030F8C
:100B48009AD1484B1B6813F0040F03D0E368002BBD
:100B580000F05383434A136823F01903E1680B43F9
:100B6800136001F037F905463E4B1B6813F0040F7C
:100B780006D101F02FF9401B0228F5D9032038BD12
:100B880001F02EF941F20303984212D82269402A53
:100B980007D034494B6823F47C3343EA02334B6073
:100BA8000FE0304A536823F47C3343F40033536036
:100BB80007E02C4A536823F0FE43216943EA0163A6
:100BC8005360236813F0100F00F09E80E369002B38
:100BD80018BF802B5ED1236A3F2B61D8214A136945
:100BE80003F03803926A082B64D0182B5ED0E369AF
:100BF800002B00F0C9801B4A136843F08003136080
:100C080001F0E8F80546174B1B6813F4807F40F0A5
:100C1800998001F0DFF8401B0228F4D90320AEE7E1
:100C280001F0DEF841F20303984212D82269402A03
:100C380007D00C494B6823F47C3343EA02334B60FA
:100C4800BFE7084A536823F47C3343F40033536006
:100C5800B7E7044A536823F0FE43216943EA016376
:100C68005360AEE700440258641F00089D4A1368A9
:100C780023F00103136001F0ADF80546994B1B689A
:100C880013F0040F9DD001F0A5F8401B0228F5D9F8
:100C9800032074E740F22B219348FFF73BFC9AE7C7
:100CA8004FF40B719048FFF735FC97E702F0030209
:100CB800012A9CD18B4B1B6813F4807F03D0E36916
:100CC800802B40F09C8201F08BF841F2030398429C
:100CD80012D8226A202A07D082494B6823F0F843A9
:100CE80043EA82634B600FE07E4A536823F0F8437F
:100CF80043F08043536007E07A4AD36823F07C537B
:100D0800216A43EA0163D360236813F0080F69D0AE
:100D18006369012B4CD86369002B4FD0714A536F1C
:100D280043F00103536701F055F805466D4B5B6FBF
:100D380013F0020F56D101F04DF8401B0228F5D9E7
:100D480003201CE701F04CF841F20303984212D843
:100D5800226A202A07D063494B6823F0F84343EA04
:100D680082634B60D0E75F4A536823F0F84343F04F
:100D780080435360C8E75B4AD36823F07C53216AF9
:100D880043EA0163D360BFE7564A136823F0800340
:100D9800136001F01FF80546524B1B6813F4807F5F
:100DA800B2D001F017F8401B0228F5D90320E6E677
:100DB80040F26D214C48FFF7ADFBACE7494A536F51
:100DC80023F00103536701F005F80546454B5B6FB7
:100DD80013F0020F06D000F0FDFF401B0228F5D9E2
:100DE8000320CCE6236813F0200F32D0A369012B2F
:100DF80015D8A369CBB13B4A136843F480531360F9
:100E080000F0E8FF0546374B1B6813F4005F20D15C
:100E180000F0E0FF401B0228F5D90320AFE64FF4AD
:100E280026713148FFF776FBE3E72E4A136823F46F
:100E38008053136000F0CEFF05462A4B1B6813F45D
:100E4800005F06D000F0C6FF401B0228F5D903203A
:100E580095E6236813F0040F71D0A368052B18BF1B
:100E6800012B13D8214A136843F48073136000F0F0
:100E7800B1FF05461D4B1B6813F4807F0CD100F0B1
:100E8800A9FF401B6428F5D9032078E640F2C22167
:100E98001548FFF73FFBE5E7A368012B0AD03BBBEA
:100EA800104B1A6F22F001021A671A6F22F004021F
:100EB8001A6704E00B4A136F43F001031367A36832
:100EC80063B300F087FF0546064B1B6F13F0020F54
:100ED80035D100F07FFF401B41F288339842F3D9A7
:100EE80003204CE600440258641F000800480258DA
:100EF800052B09D0924B1A6F22F001021A671A6F5C
:100F080022F004021A67DAE78D4B1A6F42F00402E6
:100F18001A671A6F42F001021A67D0E700F05AFF09
:100F28000546874B1B6F13F0020F08D000F052FFE5
:100F3800401B41F288339842F3D903201FE6636AC5
:100F4800022B4FD8636A002B00F05B817C4A126940
:100F580002F03802182A00F0FB80022B40F0DA80F9
:100F6800A36A032B18BF012B01D9022B40D1236C94
:100F7800002B18BF042B03D0082B01D00C2B3DD11C
:100F8800636C002B18BF022B3ED1E36A013B3E2B5A
:100F980040D8236B043BB3F5FE7F41D8636B013B1C
:100FA8007F2B43D8A36B013B7F2B45D8E36B013BD9
:100FB8007F2B47D8A36CB3F5005F49D2604A13680A
:100FC80023F08073136000F005FF05465C4B1B6837
:100FD80013F0007F42D000F0FDFE401B0228F5D937
:100FE8000320CCE54FF43D715648FFF793FAA9E783
:100FF80040F2FD215348FFF78DFAB8E740F2FE2191
:101008005048FFF787FABBE740F2FF214D48FFF74A
:1010180081FABAE74FF440714A48FFF77BFAB8E71C
:1010280040F201314748FFF775FAB7E740F202315D
:101038004448FFF76FFAB5E740F203314148FFF73C
:1010480069FAB3E74FF441713E48FFF763FAB1E735
:1010580040F205313B48FFF75DFAAFE7384B996A34
:10106800394A0A40A16AE06A41EA00110A439A62D1
:10107800226B013AC2F30802616B0139490289B255
:101088000A43A16B0139090401F4FE010A43E16B2B
:101098000139090601F0FE410A431A63DA6A22F0AF
:1010A8000102DA62596B294A0A40A16C42EAC1027C
:1010B8005A63DA6A22F00C02216C0A43DA62DA6AAD
:1010C80022F00202616C0A43DA62DA6A42F4803280
:1010D800DA62DA6A42F40032DA62DA6A42F48022C8
:1010E800DA62DA6A42F00102DA621A6842F0807261
:1010F8001A6000F06FFE0446114B1B6813F0007F66
:1011080006D100F067FE001B0228F5D9032036E55A
:10111800002034E50A4A136823F08073136000F056
:1011280059FE0446064B1B6813F0007F06D000F0FA
:1011380051FE001B0228F5D9032020E500201EE5FA
:1011480000440258641F00080CFCFFFF0700FFFF63
:10115800354A916A106B012B55D001F00303A26A3E
:10116800934252D1C1F30511E36A99424FD1C0F3BA
:101178000802236B013B9A424BD1C0F34622636BB2
:10118800013B9A4247D1C0F30642A36B013B9A4206
:1011980043D1C0F30660E36B013B98423FD1224B39
:1011A8005B6BC3F3CC03A26C9A423AD0B2F5005FF2
:1011B80019D21D4AD36A23F00103D36200F00AFE54
:1011C800054600F007FEA842FBD0174A516B174BA3
:1011D8000B40A16C43EAC1035363D36A43F0010394
:1011E800D3620020CBE44FF45B711148FFF792F90A
:1011F800DFE7012070470120C1E40120BFE401209E
:10120800BDE40020BBE40120B9E40120B7E40120DB
:10121800B5E40120B3E40120B1E40120AFE40120EA
:10122800ADE40020ABE400BF004402580700FFFF14
:10123800641F0008744B1B6903F03803102B00F07F
:10124800DE80182B10D00BB1704870476E4B1B68AE
:1012580013F0200F00F0D5806B4B1868C0F3C10065
:101268006B4B23FA00F0704710B4674A916A01F09B
:101278000301946AC4F30510D36A03F0010C536B9D
:10128800C3F3CC030CFB03F307EE903AF8EE677A4E
:1012980014F47C7F00F09380012965D0022900F0C6
:1012A8009180E1B107EE100AF8EE476A9FED596A9E
:1012B80086EE267A544B1B6BC3F3080306EE903A6E
:1012C800F8EE666A9FED546A67EE867A76EEA77A3C
:1012D800F7EE006A77EEA67A27EE277A60E01368C1
:1012E80013F0200F23D011461268C2F3C102484BF5
:1012F800D34007EE103AF8EE476A07EE100AB8EE48
:10130800476A86EE867A0B6BC3F3080306EE903ABB
:10131800F8EE666A9FED406A67EE867A76EEA77AFF
:10132800F7EE006A77EEA67A27EE277A38E007EE1E
:10133800100AF8EE476A9FED396A86EE267A324B34
:101348001B6BC3F3080306EE903AF8EE666A9FED4E
:10135800326A67EE867A76EEA77AF7EE006A77EE5B
:10136800A67A27EE277A1BE007EE100AF8EE476AFE
:101378009FED286A86EE267A234B1B6BC3F308037E
:1013880006EE903AF8EE666A9FED236A67EE867A73
:1013980076EEA77AF7EE006A77EEA67A27EE277A36
:1013A800194B1B6BC3F34623013307EE903AF8EE53
:1013B800677AC7EE276AFCEEE67A17EE900A5DF8C0
:1013C800044B704707EE100AF8EE476A9FED146A5F
:1013D80086EE267A0C4B1B6BC3F3080306EE903A95
:1013E800F8EE666A9FED0C6A67EE867A76EEA77A63
:1013F800F7EE006A77EEA67A27EE277AD0E7094853
:1014080070470348704700BF0044025800093D0078
:101418000090D0030024744A000000390024744C62
:1014280020BCBE4B40787D01002800F0418270B599
:101438000D4604460368013B3E2B00F2E9800F2D60
:1014480000F2EC809D4B1B6803F00F03AB420BD2FC
:101458009A4A136823F00F032B431360136803F0B1
:101468000F03AB4240F02682236813F0040F18D014
:101478002269934B9B6903F070039A4211D9002AA1
:1014880018BF402A06D0502A04D0602A02D0702AF9
:1014980040F0CA808A4A936923F0700321690B439C
:1014A8009361236813F0080F18D06269844BDB69D5
:1014B80003F070039A4211D9002A18BF402A06D0B7
:1014C800502A04D0602A02D0702A40F0B3807C4AA7
:1014D800D36923F0700361690B43D361236813F068
:1014E800100F1CD0A269764BDB6903F4E0639A42C3
:1014F80015D9002A18BFB2F5806F09D0B2F5A06FD0
:1015080006D0B2F5C06F03D0B2F5E06F40F0988016
:101518006B4AD36923F4E063A1690B43D361236861
:1015280013F0200F18D0E269654B1B6A03F07003B3
:101538009A4211D9002A18BF402A06D0502A04D04E
:10154800602A02D0702A40F081805D4A136A23F035
:101558007003E1690B431362236813F0020F1FD075
:10156800E268574B9B6903F00F039A4218D9002A87
:1015780018BF082A0DD0092A0BD00A2A09D00B2A2D
:1015880007D00C2A05D00D2A03D00E2A01D00F2A25
:1015980062D14B4A936923F00F03E1680B439361CF
:1015A800236813F0010F00F09D80A368002B18BF7B
:1015B800B3F5006F14D0B3F5106F11D0B3F5206FE9
:1015C8000ED0B3F5306F0BD0B3F5406F08D0B3F53C
:1015D800506F05D0B3F5606F02D0B3F5706F41D18D
:1015E8006368032B44D8364A936923F47063A1686F
:1015F8000B4393616368022B40D0032B64D0012B0B
:1016080069D02F4A126812F0040F3CD1012030E152
:1016180040F2A7312B48FEF77DFF10E74FF46A71BF
:101628002848FEF777FF0DE74FF471712548FEF75C
:1016380071FF2FE740F2D6312248FEF76BFF46E7ED
:1016480040F2E7311F48FEF765FF61E740F2F931E4
:101658001C48FEF75FFF78E740F20C411948FEF797
:1016680059FF96E740F21C411648FEF753FFB7E7CB
:1016780040F21D411348FEF74DFFB4E7126812F41B
:10168800003F00F019810E490A6922F0070213434E
:101698000B6100F09FFB0646094B1B6903F03803FA
:1016A8006268B3EBC20F1DD000F094FB801B41F2BF
:1016B80088339842F0D90320DBE000BF00200052B5
:1016C80000440258641F00087D4A126812F0007F27
:1016D800D9D10120CDE07A4A126812F4807FD2D1A4
:1016E8000120C6E0236813F0020F20D0E268744B93
:1016F8009B6903F00F039A4219D2002A18BF082ADF
:101708000ED0092A0CD00A2A0AD00B2A08D00C2A93
:1017180006D00D2A04D00E2A02D00F2A40F0AA8043
:10172800674A936923F00F03E1680B439361654BA4
:101738001B6803F00F03AB420BD9624A136823F00E
:101748000F032B431360136803F00F03AB4240F001
:10175800B580236813F0040F18D02269584B9B6991
:1017680003F070039A4211D2002A18BF402A06D00B
:10177800502A04D0602A02D0702A40F08180504A52
:10178800936923F0700321690B439361236813F075
:10179800080F17D062694A4BDB6903F070039A425D
:1017A80010D2002A18BF402A05D0502A03D0602A38
:1017B80001D0702A6AD1424AD36923F07003616963
:1017C8000B43D361236813F0100F1BD0A2693C4B65
:1017D800DB6903F4E0639A4214D2002A18BFB2F519
:1017E800806F08D0B2F5A06F05D0B2F5C06F02D0F7
:1017F800B2F5E06F50D1324AD36923F4E063A169AE
:101808000B43D361236813F0200F17D0E2692C4BE8
:101818001B6A03F070039A4210D2002A18BF402AAC
:1018280005D0502A03D0602A01D0702A3AD1244A20
:10183800136A23F07003E1690B431362FFF7FAFCA4
:101848001F498B69C3F303231F4AD35C03F01F03AB
:10185800D8408B6903F00F03D35C03F01F0320FA11
:1018680003F31A4A13601A4B18601A4B186800F0F1
:101878004FFA70BD40F25E411748FEF74BFE4FE746
:1018880040F27F411448FEF745FE78E740F2914167
:101898001148FEF73FFE8EE740F2A3410E48FEF7DF
:1018A80039FEA8E740F2B5410B48FEF733FEBEE724
:1018B800012070470120DCE70120DAE70120D8E7A2
:1018C80000440258002000520C2000080C000020A0
:1018D8000800002004000020641F00082DE9F043E0
:1018E80083B080460C466B4A6B4B904218BF9842B7
:1018F80014BF4FF001094FF000092BD003F5006326
:10190800C31A18BF012302F50062904222D00BB31C
:10191800624BC31A18BF012302F50062904219D026
:10192800C3B15F4BC31A18BF012302F5006290428E
:1019380010D07BB15B4BC31A18BF012302F50062BC
:10194800904207D033B1584B984203D0B32157483F
:10195800FEF7E0FD23689AB212B1554A1A401AB14F
:10196800B4215248FEF7D6FD6368112B18BF012B2E
:1019780017D9022B15D0122B13D0B3F5881F10D00E
:10198800B3F5041F0DD0B3F5441F0AD0B3F5901F6B
:1019980007D0B3F5081F04D0B3F5481F01D0032BB7
:1019A80001D10025C8E0B5214048FEF7B3FDF8E7AE
:1019B800E368032B17D8D8F80820690003238B4065
:1019C80022EA0302E3688B401343C8F80830D8F8CA
:1019D800042022EA07026368C3F30017AF401743E5
:1019E800C8F80470B8E0C4213048FEF793FDE2E778
:1019F800D6212E48FEF78EFDB7E0B9F1000F2DD0A5
:101A08002C4BB8EB030318BF01232B4A904525D074
:101A180023B3224BB8EB030318BF012302F500627E
:101A280090451BD0D3B11E4BB8EB030318BF01235D
:101A380002F50062904511D083B11A4BB8EB03034D
:101A480018BF012302F50062904507D033B1164B49
:101A5800984503D0E3211548FEF75CFD23690F2B59
:101A680010D8EA08083258F8220005F00703990050
:101A78000F238B4020EA030023698B40034348F877
:101A8800223084E0E4210948FEF744FDE9E7092310
:101A980015E000BF00000258000402580014025864
:101AA800001C025800240258002802589C1F0008F5
:101AB8000000FFFF000C02580008025800238B406A
:101AC80003430232664941F822304FF0B0431A68A6
:101AD800F34322EA0601606810F4801F01D046EA49
:101AE80002014FF0B0421160526803EA02016068D7
:101AF80010F4001F01D046EA02014FF0B0425160D5
:101B0800D2F8842003EA0201606810F4003F01D093
:101B180046EA02014FF0B042C2F88410D2F88020A1
:101B28001340616811F4803F01D046EA02034FF088
:101B3800B042C2F880300135266836FA05F300F065
:101B48008C800127AF403E40F5D0636803F0030363
:101B5800013B012B7FF62CAF636803F00303032BD3
:101B68000FD0A368022B3FF643AFD8F80C206900CA
:101B780003238B4022EA0302A3688B401343C8F86F
:101B88000C30636803F00303022B3FF436AFD8F838
:101B98000020690003238B4022EA0302636803F0F4
:101BA80003038B401343C8F80030636813F4403FC5
:101BB800C1D02C4BD3F8F42042F00202C3F8F42031
:101BC800D3F8F43003F002030193019BAA08911C97
:101BD800234B53F8210005F0030399000F238B4092
:101BE80020EA0300204B98453FF468AF03F5806373
:101BF800984522D003F58063984520D003F580638B
:101C080098451ED003F5806398451CD003F5806382
:101C180098451AD003F58063984518D003F580637A
:101C2800984516D003F58063984514D003F5806372
:101C380098453FF42CAF0A2341E701233FE70223ED
:101C48003DE703233BE7042339E7052337E706236A
:101C580035E7072333E7082331E703B0BDE8F0830E
:101C680000040058004402580000025870B50546A8
:101C780014460E4621B1012C08D86CB1AE6170BD76
:101C88004FF4D5710648FEF745FCF4E740F2AB1176
:101C98000348FEF73FFCF0E73604AE61EFE700BF0C
:101CA8009C1F000810B50446431E012B0CD8164B88
:101CB800DB6813F0040F0DD1134BDB6803F0070347
:101CC800A3421FD0012010BD4FF49F710F48FEF7AB
:101CD80021FCECE70C4BD86820F007000443DC60DB
:101CE80000F078F80446084B5B6813F4005F07D1EE
:101CF80000F070F8001BB0F57A7FF4D90120E2E714
:101D08000020E0E70020DEE700480258D41F000862
:101D1800104B1B780BB90120704710B504464FF4DF
:101D28007A70B0FBF3F30C4A1068B0FBF3F0FEF7DF
:101D38007FFD68B90F2C01D901200AE00022214655
:101D48004FF0FF30FEF730FD044B1C60002000E030
:101D5800012010BD00000020080000200400002021
:101D680010B50320FEF702FDFFF764FA0F498B69EF
:101D7800C3F303230E4AD35C03F01F03D8408B69D7
:101D880003F00F03D35C03F01F0320FA03F3094A9F
:101D98001360094B18600F20FFF7BAFF10B1012438
:101DA800204610BD0446FEF7CFFCF9E70044025870
:101DB8000C2000080C00002008000020034B1B78B2
:101DC800034A11680B441360704700BF00000020ED
:101DD8002C000020014B1868704700BF2C00002021
:101DE800014B1868000C70470010005C274AD2F8B5
:101DF800883043F47003C2F88830254B1B6803F021
:101E08000F03062B06D8224A136823F00F0343F06A
:101E1800070313601F4B1A6842F001021A60002280
:101E28001A6119681C4A0A401A60194B1B6813F09A
:101E3800080F06D0164A136823F00F0343F0070370
:101E48001360144B00229A61DA611A62134999628D
:101E58001349D962134919635A639963DA63196498
:101E68005A64196821F4802119601A660E4B1A68A1
:101E78000E4B1340B3F1005F03D20D4B0122C3F8A0
:101E880008210C4B43F2D2021A60704700ED00E0C3
:101E980000200052004402587FEDF6EA00020202D8
:101EA8000000FF01800201010010005C0000FFFF3C
:101EB8000080005100400052DFF834D0FFF796FF51
:101EC8000C480D490D4A002302E0D458C45004338D
:101ED800C4188C42F9D30A4A0A4C002301E0136063
:101EE8000432A242FBD3FEF717FAFEF709FB70474C
:101EF800000002200000002010000020242000081C
:101F08001000002030000020FEE70000F8B500BFF8
:101F1800F8BC08BC9E467047F8B500BFF8BC08BCC2
:041F28009E4670471A
:101F2C00447269766572732F53544D333248377847
:101F3C00785F48414C5F4472697665722F537263C7
:101F4C002F73746D3332683778785F68616C5F63B8
:101F5C006F727465782E6300447269766572732FA4
:101F6C0053544D3332483778785F48414C5F447254
:101F7C00697665722F5372632F73746D33326837C1
:101F8C0078785F68616C5F7263632E630000000099
:101F9C00447269766572732F53544D3332483778D7
:101FAC00785F48414C5F4472697665722F53726357
:101FBC002F73746D3332683778785F68616C5F6744
:101FCC0070696F2E63000000447269766572732F1E
:101FDC0053544D3332483778785F48414C5F4472E4
:101FEC00697665722F5372632F73746D3332683751
:101FFC0078785F68616C5F7077725F65782E6300CC
:10200C000000000001020304010203040607080992
:04201C0001030008B4
:04202000D9020008D9
:1020240001000000100000000090D0030090D003D5
:0400000508001EC110
:00000001FF
